S0150000426C61636B626972645F7630312E737265635B
S113000019C028C027C026C025C024C023C022C0D0
S113001021C020C080C01EC01DC01CC01BC01AC08F
S113002019C018C017C016C015C014C013C012C020
S113003011C010C011241FBECFEFCDBFDFE3DEBF60
S11300402FE3A0E0BFE301C01D92A930B207E1F79E
S113005082D0FBC0D5CFE0E1F1E080818160808374
S11300608AE08383E0E0F4E088EB81838CE0868B94
S11300709DE290932104E0E4F4E092E09183828B8A
S113008060E081E690E0DBD062E088E790E0D7D0E2
S11300908091630085FFFCCF61E880E690E0CFD0DB
S11300A08091630085FFFCCF60E080E790E0C7D0DB
S11300B0E0E0FAE0108283E1818380E191E086A3AD
S11300C097A310A211A288E890E080A791A780E1ED
S11300D08287808181608083E0E4FAE0108287E196
S11300E0818382E1848786E08587128613868081F6
S11300F081608083E0ECF1E080E5868385E087839E
S113010080E4808788E0858385818160858381E0C0
S11301108083789408951F920F920FB60F92112442
S11301208F9381E08093083F80E180930B0A809154
S1130130003F882321F081508093003F06C082E075
S11301408093003F80E8809307048F910F900FBE47
S11301500F901F9018957FDF8091083F8130E1F761
S11301608091280481FF08C08091280484FF04C082
S11301708CE08093250412C08091280481FF08C07C
S11301808091280484FD04C08CE08093260406C07A
S1130190E0E2F4E084E0868388E08583809148048B
S11301A083FF04C081E08093033F02C01092033FA9
S11301B08091033F882371F09091023F992351F07D
S11301C092E09093073F91E09093053F98E09093DD
S11301D0050407C09091073F992319F0915090931B
S11301E0073F9091073F911105C01092053F98E099
S11301F090930604882339F08091023F882319F0F4
S113020082E18093063F8091063F882351F081501C
S11302108093063F81E08093043F82E0809345040D
S113022005C01092043F82E0809346041092083F78
S11302308091033F8093023F8093013F8DCFDC0187
S111024028ED209334006C930895F894FFCFBA
S9030000FC
